{
  "_format": "hh-sol-artifact-1",
  "contractName": "Voting",
  "sourceName": "contracts/Voting.sol",
  "abi": [
    {
      "inputs": [
        {
          "internalType": "string[]",
          "name": "_names",
          "type": "string[]"
        },
        {
          "internalType": "string[]",
          "name": "_parties",
          "type": "string[]"
        }
      ],
      "stateMutability": "nonpayable",
      "type": "constructor"
    },
    {
      "anonymous": false,
      "inputs": [
        {
          "indexed": true,
          "internalType": "address",
          "name": "voter",
          "type": "address"
        },
        {
          "indexed": false,
          "internalType": "uint256",
          "name": "candidateId",
          "type": "uint256"
        }
      ],
      "name": "VoteCast",
      "type": "event"
    },
    {
      "anonymous": false,
      "inputs": [],
      "name": "VotingClosed",
      "type": "event"
    },
    {
      "anonymous": false,
      "inputs": [],
      "name": "VotingOpened",
      "type": "event"
    },
    {
      "inputs": [],
      "name": "admin",
      "outputs": [
        {
          "internalType": "address",
          "name": "",
          "type": "address"
        }
      ],
      "stateMutability": "view",
      "type": "function"
    },
    {
      "inputs": [
        {
          "internalType": "uint256",
          "name": "",
          "type": "uint256"
        }
      ],
      "name": "candidates",
      "outputs": [
        {
          "internalType": "uint256",
          "name": "id",
          "type": "uint256"
        },
        {
          "internalType": "string",
          "name": "name",
          "type": "string"
        },
        {
          "internalType": "string",
          "name": "party",
          "type": "string"
        },
        {
          "internalType": "uint256",
          "name": "voteCount",
          "type": "uint256"
        }
      ],
      "stateMutability": "view",
      "type": "function"
    },
    {
      "inputs": [],
      "name": "closeVoting",
      "outputs": [],
      "stateMutability": "nonpayable",
      "type": "function"
    },
    {
      "inputs": [],
      "name": "getCandidates",
      "outputs": [
        {
          "components": [
            {
              "internalType": "uint256",
              "name": "id",
              "type": "uint256"
            },
            {
              "internalType": "string",
              "name": "name",
              "type": "string"
            },
            {
              "internalType": "string",
              "name": "party",
              "type": "string"
            },
            {
              "internalType": "uint256",
              "name": "voteCount",
              "type": "uint256"
            }
          ],
          "internalType": "struct Voting.Candidate[]",
          "name": "",
          "type": "tuple[]"
        }
      ],
      "stateMutability": "view",
      "type": "function"
    },
    {
      "inputs": [],
      "name": "getTotalVotes",
      "outputs": [
        {
          "internalType": "uint256",
          "name": "",
          "type": "uint256"
        }
      ],
      "stateMutability": "view",
      "type": "function"
    },
    {
      "inputs": [
        {
          "internalType": "uint256",
          "name": "_candidateId",
          "type": "uint256"
        }
      ],
      "name": "getVoteCount",
      "outputs": [
        {
          "internalType": "uint256",
          "name": "",
          "type": "uint256"
        }
      ],
      "stateMutability": "view",
      "type": "function"
    },
    {
      "inputs": [],
      "name": "getWinner",
      "outputs": [
        {
          "components": [
            {
              "internalType": "uint256",
              "name": "id",
              "type": "uint256"
            },
            {
              "internalType": "string",
              "name": "name",
              "type": "string"
            },
            {
              "internalType": "string",
              "name": "party",
              "type": "string"
            },
            {
              "internalType": "uint256",
              "name": "voteCount",
              "type": "uint256"
            }
          ],
          "internalType": "struct Voting.Candidate",
          "name": "",
          "type": "tuple"
        }
      ],
      "stateMutability": "view",
      "type": "function"
    },
    {
      "inputs": [
        {
          "internalType": "address",
          "name": "_voter",
          "type": "address"
        }
      ],
      "name": "hasVoted",
      "outputs": [
        {
          "internalType": "bool",
          "name": "",
          "type": "bool"
        }
      ],
      "stateMutability": "view",
      "type": "function"
    },
    {
      "inputs": [],
      "name": "isVotingOpen",
      "outputs": [
        {
          "internalType": "bool",
          "name": "",
          "type": "bool"
        }
      ],
      "stateMutability": "view",
      "type": "function"
    },
    {
      "inputs": [],
      "name": "openVoting",
      "outputs": [],
      "stateMutability": "nonpayable",
      "type": "function"
    },
    {
      "inputs": [],
      "name": "totalVotes",
      "outputs": [
        {
          "internalType": "uint256",
          "name": "",
          "type": "uint256"
        }
      ],
      "stateMutability": "view",
      "type": "function"
    },
    {
      "inputs": [
        {
          "internalType": "uint256",
          "name": "_candidateId",
          "type": "uint256"
        }
      ],
      "name": "vote",
      "outputs": [],
      "stateMutability": "nonpayable",
      "type": "function"
    },
    {
      "inputs": [
        {
          "internalType": "address",
          "name": "",
          "type": "address"
        }
      ],
      "name": "voters",
      "outputs": [
        {
          "internalType": "bool",
          "name": "hasVoted",
          "type": "bool"
        },
        {
          "internalType": "uint256",
          "name": "votedCandidateId",
          "type": "uint256"
        }
      ],
      "stateMutability": "view",
      "type": "function"
    },
    {
      "inputs": [],
      "name": "votingOpen",
      "outputs": [
        {
          "internalType": "bool",
          "name": "",
          "type": "bool"
        }
      ],
      "stateMutability": "view",
      "type": "function"
    }
  ],
  "bytecode": "0x60806040523480156200001157600080fd5b5060405162001248380380620012488339810160408190526200003491620002c3565b600080546001600160a01b031916331781555b82518110156200011d57600160405180608001604052808381526020018584815181106200007957620000796200032d565b602002602001015181526020018484815181106200009b576200009b6200032d565b602090810291909101810151825260009181018290528354600181810186559483529181902083516004909302019182558201519192909190820190620000e39082620003d2565b5060408201516002820190620000fa9082620003d2565b50606082015181600301555050808062000114906200049e565b91505062000047565b506003805460ff191660011790556040517fa737faa632a36c00ccb4220893426e922f9442f1cab67acd8301f88a596d4abc90600090a15050620004c6565b634e487b7160e01b600052604160045260246000fd5b604051601f8201601f191681016001600160401b03811182821017156200019d576200019d6200015c565b604052919050565b6000601f8381840112620001b857600080fd5b825160206001600160401b0380831115620001d757620001d76200015c565b8260051b620001e883820162000172565b93845286810183019383810190898611156200020357600080fd5b84890192505b85831015620002b657825184811115620002235760008081fd5b8901603f81018b13620002365760008081fd5b85810151858111156200024d576200024d6200015c565b62000260818a01601f1916880162000172565b81815260408d81848601011115620002785760008081fd5b60005b8381101562000298578481018201518382018b015289016200027b565b50506000918101880191909152835250918401919084019062000209565b9998505050505050505050565b60008060408385031215620002d757600080fd5b82516001600160401b0380821115620002ef57600080fd5b620002fd86838701620001a5565b935060208501519150808211156200031457600080fd5b506200032385828601620001a5565b9150509250929050565b634e487b7160e01b600052603260045260246000fd5b600181811c908216806200035857607f821691505b6020821081036200037957634e487b7160e01b600052602260045260246000fd5b50919050565b601f821115620003cd57600081815260208120601f850160051c81016020861015620003a85750805b601f850160051c820191505b81811015620003c957828155600101620003b4565b5050505b505050565b81516001600160401b03811115620003ee57620003ee6200015c565b6200040681620003ff845462000343565b846200037f565b602080601f8311600181146200043e5760008415620004255750858301515b600019600386901b1c1916600185901b178555620003c9565b600085815260208120601f198616915b828110156200046f578886015182559484019460019091019084016200044e565b50858210156200048e5787850151600019600388901b60f8161c191681555b5050505050600190811b01905550565b600060018201620004bf57634e487b7160e01b600052601160045260246000fd5b5060010190565b610d7280620004d66000396000f3fe608060405234801561001057600080fd5b50600436106100ea5760003560e01c8063a3ec138d1161008c578063b2c2f2e811610066578063b2c2f2e81461020e578063c631b29214610221578063f851a44014610229578063fa7f1bae1461025457600080fd5b8063a3ec138d146101b5578063a95824b4146101f9578063affc06701461020657600080fd5b80630d15fd77116100c85780630d15fd771461015e5780633477ee2e146101755780638e7ea5b2146101985780639a0e7d66146101ad57600080fd5b80630121b93f146100ef57806306a49fce1461010457806309eef43e14610122575b600080fd5b6101026100fd366004610b11565b61025f565b005b61010c6103f8565b6040516101199190610bbf565b60405180910390f35b61014e610130366004610c21565b6001600160a01b031660009081526002602052604090205460ff1690565b6040519015158152602001610119565b61016760045481565b604051908152602001610119565b610188610183366004610b11565b61058f565b6040516101199493929190610c51565b6101a06106db565b6040516101199190610c8e565b600454610167565b6101e26101c3366004610c21565b6002602052600090815260409020805460019091015460ff9091169082565b604080519215158352602083019190915201610119565b60035461014e9060ff1681565b610102610957565b61016761021c366004610b11565b6109fb565b610102610a6f565b60005461023c906001600160a01b031681565b6040516001600160a01b039091168152602001610119565b60035460ff1661014e565b60035460ff166102a95760405162461bcd60e51b815260206004820152601060248201526f159bdd1a5b99c81a5cc818db1bdcd95960821b60448201526064015b60405180910390fd5b3360009081526002602052604090205460ff16156102f95760405162461bcd60e51b815260206004820152600d60248201526c105b1c9958591e481d9bdd1959609a1b60448201526064016102a0565b600154811061033e5760405162461bcd60e51b8152602060048201526011602482015270496e76616c69642063616e64696461746560781b60448201526064016102a0565b6040805180820182526001808252602080830185815233600090815260029092529390209151825460ff191690151517825591519082015580548290811061038857610388610ca1565b6000918252602082206003600490920201018054916103a683610cb7565b9091555050600480549060006103bb83610cb7565b909155505060405181815233907fa36cc2bebb74db33e9f88110a07ef56e1b31b24b4c4f51b54b1664266e29f45b9060200160405180910390a250565b60606001805480602002602001604051908101604052809291908181526020016000905b8282101561058657838290600052602060002090600402016040518060800160405290816000820154815260200160018201805461045990610cde565b80601f016020809104026020016040519081016040528092919081815260200182805461048590610cde565b80156104d25780601f106104a7576101008083540402835291602001916104d2565b820191906000526020600020905b8154815290600101906020018083116104b557829003601f168201915b505050505081526020016002820180546104eb90610cde565b80601f016020809104026020016040519081016040528092919081815260200182805461051790610cde565b80156105645780601f1061053957610100808354040283529160200191610564565b820191906000526020600020905b81548152906001019060200180831161054757829003601f168201915b505050505081526020016003820154815250508152602001906001019061041c565b50505050905090565b6001818154811061059f57600080fd5b600091825260209091206004909102018054600182018054919350906105c490610cde565b80601f01602080910402602001604051908101604052809291908181526020018280546105f090610cde565b801561063d5780601f106106125761010080835404028352916020019161063d565b820191906000526020600020905b81548152906001019060200180831161062057829003601f168201915b50505050509080600201805461065290610cde565b80601f016020809104026020016040519081016040528092919081815260200182805461067e90610cde565b80156106cb5780601f106106a0576101008083540402835291602001916106cb565b820191906000526020600020905b8154815290600101906020018083116106ae57829003601f168201915b5050505050908060030154905084565b6107066040518060800160405280600081526020016060815260200160608152602001600081525090565b6000546001600160a01b031633146107305760405162461bcd60e51b81526004016102a090610d18565b6000600454116107725760405162461bcd60e51b815260206004820152600d60248201526c139bc81d9bdd195cc818d85cdd609a1b60448201526064016102a0565b60008060005b6001548110156107eb57826001828154811061079657610796610ca1565b90600052602060002090600402016003015411156107d957600181815481106107c1576107c1610ca1565b90600052602060002090600402016003015492508091505b806107e381610cb7565b915050610778565b50600181815481106107ff576107ff610ca1565b90600052602060002090600402016040518060800160405290816000820154815260200160018201805461083290610cde565b80601f016020809104026020016040519081016040528092919081815260200182805461085e90610cde565b80156108ab5780601f10610880576101008083540402835291602001916108ab565b820191906000526020600020905b81548152906001019060200180831161088e57829003601f168201915b505050505081526020016002820180546108c490610cde565b80601f01602080910402602001604051908101604052809291908181526020018280546108f090610cde565b801561093d5780601f106109125761010080835404028352916020019161093d565b820191906000526020600020905b81548152906001019060200180831161092057829003601f168201915b505050505081526020016003820154815250509250505090565b6000546001600160a01b031633146109815760405162461bcd60e51b81526004016102a090610d18565b60035460ff16156109c35760405162461bcd60e51b815260206004820152600c60248201526b20b63932b0b23c9037b832b760a11b60448201526064016102a0565b6003805460ff191660011790556040517fa737faa632a36c00ccb4220893426e922f9442f1cab67acd8301f88a596d4abc90600090a1565b6001546000908210610a435760405162461bcd60e51b8152602060048201526011602482015270496e76616c69642063616e64696461746560781b60448201526064016102a0565b60018281548110610a5657610a56610ca1565b9060005260206000209060040201600301549050919050565b6000546001600160a01b03163314610a995760405162461bcd60e51b81526004016102a090610d18565b60035460ff16610adc5760405162461bcd60e51b815260206004820152600e60248201526d105b1c9958591e4818db1bdcd95960921b60448201526064016102a0565b6003805460ff191690556040517f66b6cb4a09abc3bf1cacc3c67420258856ffdad0deba9078cbd1658957b5021890600090a1565b600060208284031215610b2357600080fd5b5035919050565b6000815180845260005b81811015610b5057602081850181015186830182015201610b34565b506000602082860101526020601f19601f83011685010191505092915050565b805182526000602082015160806020850152610b8f6080850182610b2a565b905060408301518482036040860152610ba88282610b2a565b915050606083015160608501528091505092915050565b6000602080830181845280855180835260408601915060408160051b870101925083870160005b82811015610c1457603f19888603018452610c02858351610b70565b94509285019290850190600101610be6565b5092979650505050505050565b600060208284031215610c3357600080fd5b81356001600160a01b0381168114610c4a57600080fd5b9392505050565b848152608060208201526000610c6a6080830186610b2a565b8281036040840152610c7c8186610b2a565b91505082606083015295945050505050565b602081526000610c4a6020830184610b70565b634e487b7160e01b600052603260045260246000fd5b600060018201610cd757634e487b7160e01b600052601160045260246000fd5b5060010190565b600181811c90821680610cf257607f821691505b602082108103610d1257634e487b7160e01b600052602260045260246000fd5b50919050565b6020808252600a908201526927b7363c9030b236b4b760b11b60408201526060019056fea26469706673582212204fd0976773971693a8d88c837627c3d9983013b40badef7e70c8c3832c73aae364736f6c63430008130033",
  "linkReferences": {},
  "deployedLinkReferences": {}
}